{"abi":[{"type":"function","name":"addScore","inputs":[{"name":"_playerOneName","type":"string","internalType":"string"},{"name":"_playerTwoName","type":"string","internalType":"string"},{"name":"_playerOneScore","type":"uint16","internalType":"uint16"},{"name":"_playerTwoScore","type":"uint16","internalType":"uint16"},{"name":"_victoriousPlayerName","type":"string","internalType":"string"}],"outputs":[],"stateMutability":"nonpayable"},{"type":"function","name":"getAllTournamentScore","inputs":[],"outputs":[{"name":"","type":"tuple[]","internalType":"struct PongScore[]","components":[{"name":"gameId","type":"uint256","internalType":"uint256"},{"name":"playerOneName","type":"string","internalType":"string"},{"name":"playerTwoName","type":"string","internalType":"string"},{"name":"result","type":"tuple","internalType":"struct Score","components":[{"name":"playerOneScore","type":"uint16","internalType":"uint16"},{"name":"playerTwoScore","type":"uint16","internalType":"uint16"}]},{"name":"victoriousPlayerName","type":"string","internalType":"string"}]}],"stateMutability":"view"},{"type":"function","name":"getResultByGameId","inputs":[{"name":"gameId","type":"uint256","internalType":"uint256"}],"outputs":[{"name":"","type":"tuple","internalType":"struct PongScore","components":[{"name":"gameId","type":"uint256","internalType":"uint256"},{"name":"playerOneName","type":"string","internalType":"string"},{"name":"playerTwoName","type":"string","internalType":"string"},{"name":"result","type":"tuple","internalType":"struct Score","components":[{"name":"playerOneScore","type":"uint16","internalType":"uint16"},{"name":"playerTwoScore","type":"uint16","internalType":"uint16"}]},{"name":"victoriousPlayerName","type":"string","internalType":"string"}]}],"stateMutability":"view"},{"type":"function","name":"pongScore","inputs":[{"name":"","type":"uint256","internalType":"uint256"}],"outputs":[{"name":"gameId","type":"uint256","internalType":"uint256"},{"name":"playerOneName","type":"string","internalType":"string"},{"name":"playerTwoName","type":"string","internalType":"string"},{"name":"result","type":"tuple","internalType":"struct Score","components":[{"name":"playerOneScore","type":"uint16","internalType":"uint16"},{"name":"playerTwoScore","type":"uint16","internalType":"uint16"}]},{"name":"victoriousPlayerName","type":"string","internalType":"string"}],"stateMutability":"view"},{"type":"function","name":"tournamentIdToPongScore","inputs":[{"name":"","type":"uint256","internalType":"uint256"}],"outputs":[{"name":"gameId","type":"uint256","internalType":"uint256"},{"name":"playerOneName","type":"string","internalType":"string"},{"name":"playerTwoName","type":"string","internalType":"string"},{"name":"result","type":"tuple","internalType":"struct Score","components":[{"name":"playerOneScore","type":"uint16","internalType":"uint16"},{"name":"playerTwoScore","type":"uint16","internalType":"uint16"}]},{"name":"victoriousPlayerName","type":"string","internalType":"string"}],"stateMutability":"view"}],"bytecode":{"object":"0x6080604052348015600e575f5ffd5b506116b58061001c5f395ff3fe608060405234801561000f575f5ffd5b5060043610610055575f3560e01c8063082b151c146100595780633e1d5a91146100755780638faaea7e14610093578063e44085c2146100c7578063f9b9f86a146100fb575b5f5ffd5b610073600480360381019061006e9190610dd1565b61012b565b005b61007d61031e565b60405161008a919061108c565b60405180910390f35b6100ad60048036038101906100a891906110d6565b610583565b6040516100be959493929190611185565b60405180910390f35b6100e160048036038101906100dc91906110d6565b61079c565b6040516100f2959493929190611185565b60405180910390f35b610115600480360381019061011091906110d6565b6109a7565b604051610122919061126c565b60405180910390f35b5f5f8054905090505f6040518060a0016040528083815260200188815260200187815260200160405180604001604052808861ffff1681526020018761ffff16815250815260200184815250908060018154018082558091505060019003905f5260205f2090600502015f909190919091505f820151815f015560208201518160010190816101ba9190611489565b5060408201518160020190816101d09190611489565b506060820151816003015f820151815f015f6101000a81548161ffff021916908361ffff1602179055506020820151815f0160026101000a81548161ffff021916908361ffff160217905550505060808201518160040190816102339190611489565b5050505f818154811061024957610248611558565b5b905f5260205f20906005020160015f8381526020019081526020015f205f820154815f015560018201816001019081610282919061159a565b5060028201816002019081610297919061159a565b5060038201816003015f82015f9054906101000a900461ffff16815f015f6101000a81548161ffff021916908361ffff1602179055505f820160029054906101000a900461ffff16815f0160026101000a81548161ffff021916908361ffff160217905550505060048201816004019081610312919061159a565b50905050505050505050565b60605f805480602002602001604051908101604052809291908181526020015f905b8282101561057a578382905f5260205f2090600502016040518060a00160405290815f820154815260200160018201805461037a906112b9565b80601f01602080910402602001604051908101604052809291908181526020018280546103a6906112b9565b80156103f15780601f106103c8576101008083540402835291602001916103f1565b820191905f5260205f20905b8154815290600101906020018083116103d457829003601f168201915b5050505050815260200160028201805461040a906112b9565b80601f0160208091040260200160405190810160405280929190818152602001828054610436906112b9565b80156104815780601f1061045857610100808354040283529160200191610481565b820191905f5260205f20905b81548152906001019060200180831161046457829003601f168201915b50505050508152602001600382016040518060400160405290815f82015f9054906101000a900461ffff1661ffff1661ffff1681526020015f820160029054906101000a900461ffff1661ffff1661ffff168152505081526020016004820180546104eb906112b9565b80601f0160208091040260200160405190810160405280929190818152602001828054610517906112b9565b80156105625780601f1061053957610100808354040283529160200191610562565b820191905f5260205f20905b81548152906001019060200180831161054557829003601f168201915b50505050508152505081526020019060010190610340565b50505050905090565b5f8181548110610591575f80fd5b905f5260205f2090600502015f91509050805f0154908060010180546105b6906112b9565b80601f01602080910402602001604051908101604052809291908181526020018280546105e2906112b9565b801561062d5780601f106106045761010080835404028352916020019161062d565b820191905f5260205f20905b81548152906001019060200180831161061057829003601f168201915b505050505090806002018054610642906112b9565b80601f016020809104026020016040519081016040528092919081815260200182805461066e906112b9565b80156106b95780601f10610690576101008083540402835291602001916106b9565b820191905f5260205f20905b81548152906001019060200180831161069c57829003601f168201915b505050505090806003016040518060400160405290815f82015f9054906101000a900461ffff1661ffff1661ffff1681526020015f820160029054906101000a900461ffff1661ffff1661ffff16815250509080600401805461071b906112b9565b80601f0160208091040260200160405190810160405280929190818152602001828054610747906112b9565b80156107925780601f1061076957610100808354040283529160200191610792565b820191905f5260205f20905b81548152906001019060200180831161077557829003601f168201915b5050505050905085565b6001602052805f5260405f205f91509050805f0154908060010180546107c1906112b9565b80601f01602080910402602001604051908101604052809291908181526020018280546107ed906112b9565b80156108385780601f1061080f57610100808354040283529160200191610838565b820191905f5260205f20905b81548152906001019060200180831161081b57829003601f168201915b50505050509080600201805461084d906112b9565b80601f0160208091040260200160405190810160405280929190818152602001828054610879906112b9565b80156108c45780601f1061089b576101008083540402835291602001916108c4565b820191905f5260205f20905b8154815290600101906020018083116108a757829003601f168201915b505050505090806003016040518060400160405290815f82015f9054906101000a900461ffff1661ffff1661ffff1681526020015f820160029054906101000a900461ffff1661ffff1661ffff168152505090806004018054610926906112b9565b80601f0160208091040260200160405190810160405280929190818152602001828054610952906112b9565b801561099d5780601f106109745761010080835404028352916020019161099d565b820191905f5260205f20905b81548152906001019060200180831161098057829003601f168201915b5050505050905085565b6109af610bf9565b5f8054905082106109be575f5ffd5b5f82815481106109d1576109d0611558565b5b905f5260205f2090600502016040518060a00160405290815f8201548152602001600182018054610a01906112b9565b80601f0160208091040260200160405190810160405280929190818152602001828054610a2d906112b9565b8015610a785780601f10610a4f57610100808354040283529160200191610a78565b820191905f5260205f20905b815481529060010190602001808311610a5b57829003601f168201915b50505050508152602001600282018054610a91906112b9565b80601f0160208091040260200160405190810160405280929190818152602001828054610abd906112b9565b8015610b085780601f10610adf57610100808354040283529160200191610b08565b820191905f5260205f20905b815481529060010190602001808311610aeb57829003601f168201915b50505050508152602001600382016040518060400160405290815f82015f9054906101000a900461ffff1661ffff1661ffff1681526020015f820160029054906101000a900461ffff1661ffff1661ffff16815250508152602001600482018054610b72906112b9565b80601f0160208091040260200160405190810160405280929190818152602001828054610b9e906112b9565b8015610be95780601f10610bc057610100808354040283529160200191610be9565b820191905f5260205f20905b815481529060010190602001808311610bcc57829003601f168201915b5050505050815250509050919050565b6040518060a001604052805f81526020016060815260200160608152602001610c20610c2d565b8152602001606081525090565b60405180604001604052805f61ffff1681526020015f61ffff1681525090565b5f604051905090565b5f5ffd5b5f5ffd5b5f5ffd5b5f5ffd5b5f601f19601f8301169050919050565b7f4e487b71000000000000000000000000000000000000000000000000000000005f52604160045260245ffd5b610cac82610c66565b810181811067ffffffffffffffff82111715610ccb57610cca610c76565b5b80604052505050565b5f610cdd610c4d565b9050610ce98282610ca3565b919050565b5f67ffffffffffffffff821115610d0857610d07610c76565b5b610d1182610c66565b9050602081019050919050565b828183375f83830152505050565b5f610d3e610d3984610cee565b610cd4565b905082815260208101848484011115610d5a57610d59610c62565b5b610d65848285610d1e565b509392505050565b5f82601f830112610d8157610d80610c5e565b5b8135610d91848260208601610d2c565b91505092915050565b5f61ffff82169050919050565b610db081610d9a565b8114610dba575f5ffd5b50565b5f81359050610dcb81610da7565b92915050565b5f5f5f5f5f60a08688031215610dea57610de9610c56565b5b5f86013567ffffffffffffffff811115610e0757610e06610c5a565b5b610e1388828901610d6d565b955050602086013567ffffffffffffffff811115610e3457610e33610c5a565b5b610e4088828901610d6d565b9450506040610e5188828901610dbd565b9350506060610e6288828901610dbd565b925050608086013567ffffffffffffffff811115610e8357610e82610c5a565b5b610e8f88828901610d6d565b9150509295509295909350565b5f81519050919050565b5f82825260208201905092915050565b5f819050602082019050919050565b5f819050919050565b610ed781610ec5565b82525050565b5f81519050919050565b5f82825260208201905092915050565b8281835e5f83830152505050565b5f610f0f82610edd565b610f198185610ee7565b9350610f29818560208601610ef7565b610f3281610c66565b840191505092915050565b610f4681610d9a565b82525050565b604082015f820151610f605f850182610f3d565b506020820151610f736020850182610f3d565b50505050565b5f60c083015f830151610f8e5f860182610ece565b5060208301518482036020860152610fa68282610f05565b91505060408301518482036040860152610fc08282610f05565b9150506060830151610fd56060860182610f4c565b50608083015184820360a0860152610fed8282610f05565b9150508091505092915050565b5f6110058383610f79565b905092915050565b5f602082019050919050565b5f61102382610e9c565b61102d8185610ea6565b93508360208202850161103f85610eb6565b805f5b8581101561107a578484038952815161105b8582610ffa565b94506110668361100d565b925060208a01995050600181019050611042565b50829750879550505050505092915050565b5f6020820190508181035f8301526110a48184611019565b905092915050565b6110b581610ec5565b81146110bf575f5ffd5b50565b5f813590506110d0816110ac565b92915050565b5f602082840312156110eb576110ea610c56565b5b5f6110f8848285016110c2565b91505092915050565b61110a81610ec5565b82525050565b5f82825260208201905092915050565b5f61112a82610edd565b6111348185611110565b9350611144818560208601610ef7565b61114d81610c66565b840191505092915050565b604082015f82015161116c5f850182610f3d565b50602082015161117f6020850182610f3d565b50505050565b5f60c0820190506111985f830188611101565b81810360208301526111aa8187611120565b905081810360408301526111be8186611120565b90506111cd6060830185611158565b81810360a08301526111df8184611120565b90509695505050505050565b5f60c083015f8301516112005f860182610ece565b50602083015184820360208601526112188282610f05565b915050604083015184820360408601526112328282610f05565b91505060608301516112476060860182610f4c565b50608083015184820360a086015261125f8282610f05565b9150508091505092915050565b5f6020820190508181035f83015261128481846111eb565b905092915050565b7f4e487b71000000000000000000000000000000000000000000000000000000005f52602260045260245ffd5b5f60028204905060018216806112d057607f821691505b6020821081036112e3576112e261128c565b5b50919050565b5f819050815f5260205f209050919050565b5f6020601f8301049050919050565b5f82821b905092915050565b5f600883026113457fffffffffffffffffffffffffffffffffffffffffffffffffffffffffffffffff8261130a565b61134f868361130a565b95508019841693508086168417925050509392505050565b5f819050919050565b5f61138a61138561138084610ec5565b611367565b610ec5565b9050919050565b5f819050919050565b6113a383611370565b6113b76113af82611391565b848454611316565b825550505050565b5f5f905090565b6113ce6113bf565b6113d981848461139a565b505050565b5b818110156113fc576113f15f826113c6565b6001810190506113df565b5050565b601f82111561144157611412816112e9565b61141b846112fb565b8101602085101561142a578190505b61143e611436856112fb565b8301826113de565b50505b505050565b5f82821c905092915050565b5f6114615f1984600802611446565b1980831691505092915050565b5f6114798383611452565b9150826002028217905092915050565b61149282610edd565b67ffffffffffffffff8111156114ab576114aa610c76565b5b6114b582546112b9565b6114c0828285611400565b5f60209050601f8311600181146114f1575f84156114df578287015190505b6114e9858261146e565b865550611550565b601f1984166114ff866112e9565b5f5b8281101561152657848901518255600182019150602085019450602081019050611501565b86831015611543578489015161153f601f891682611452565b8355505b6001600288020188555050505b505050505050565b7f4e487b71000000000000000000000000000000000000000000000000000000005f52603260045260245ffd5b5f81549050611593816112b9565b9050919050565b8181036115a857505061167d565b6115b182611585565b67ffffffffffffffff8111156115ca576115c9610c76565b5b6115d482546112b9565b6115df828285611400565b5f601f83116001811461160c575f84156115fa578287015490505b611604858261146e565b865550611676565b601f19841661161a876112e9565b9650611625866112e9565b5f5b8281101561164c57848901548255600182019150600185019450602081019050611627565b868310156116695784890154611665601f891682611452565b8355505b6001600288020188555050505b5050505050505b56fea264697066735822122020e8c1ddd75889c6f1b42440f6626575b8d8b69f4358663946f96677b6e6eabf64736f6c634300081c0033","linkReferences":{}},"methodIdentifiers":{"addScore(string,string,uint16,uint16,string)":"082b151c","getAllTournamentScore()":"3e1d5a91","getResultByGameId(uint256)":"f9b9f86a","pongScore(uint256)":"8faaea7e","tournamentIdToPongScore(uint256)":"e44085c2"},"id":1}